S00E00006472697665722E737265638A
S11300000C942A000C9434000C9434000C943400A6
S11300100C9434000C9434000C9434000C9434008C
S11300200C9434000C9434000C9434000C9434007C
S11300300C9434000C9434000C9434000C9434006C
S11300400C9434000C9434000C9434000C9434005C
S11300500C94340011241FBECFE5D8E0DEBFCDBF21
S11300600E940C010C9451010C94000080B382FB9B
S1130070882780F98299FECFEFE3FCE93197F1F705
S113008000C000000895813041F028F0823039F03A
S1130090833039F008956ABB089567BB089564BB43
S11300A0089561BB08954423D9F1413009F06FC02C
S11300B0813091F028F08230D9F0833029F130C0BA
S11300C02AB381E090E0062E02C0880F991F0A949B
S11300D0E2F7822B8ABB2CC027B381E090E0062E86
S11300E002C0880F991F0A94E2F7822B87BB2CC0A9
S11300F024B381E090E0062E02C0880F991F0A9471
S1130100E2F7822B84BB2CC021B381E090E0062E61
S113011002C0880F991F0A94E2F7822B81BB2CC07E
S1130120813091F028F08230D9F0833081F524C0F9
S11301302AB381E090E002C0880F991F6A95E2F724
S1130140809582238ABB089527B381E090E002C0A2
S1130150880F991F6A95E2F78095822387BB0895DB
S113016024B381E090E002C0880F991F6A95E2F7FA
S11301708095822384BB089521B381E090E002C07E
S1130180880F991F6A95E2F78095822381BB0895B1
S1130190813041F028F0823039F0833039F008950D
S11301A06BBB089568BB089565BB089562BB089551
S11301B0813089F028F08230C9F0833011F108953C
S11301C02BB381E090E002C0880F991F6A95E2F793
S11301D082278BBB089528B381E090E002C0880F8A
S11301E0991F6A95E2F7822788BB089525B381E0B9
S11301F090E002C0880F991F6A95E2F7822785BBB9
S1130200089522B381E090E002C0880F991F6A9597
S1130210E2F7822782BB08956FEF80E00E944300DB
S11302204FEF62E081E00E94530040E060E081E033
S11302300E94530062E081E00E94C800C9E00E946D
S113024036008823E1F36C2F6295607F80E00E9482
S1130250C800C1111BC063E080E00E94D8002FEFEA
S113026084E39CE0215080409040E1F700C000000E
S113027063E080E00E94D8002FEF84E39CE02150EB
S113028080409040E1F700C00000C9E0C1502FEF6A
S113029089E698E1215080409040E1F700C00000D9
S10902A0CECFF894FFCF5D
S9030000FC
